{
  "_format": "hh-sol-artifact-1",
  "contractName": "GameBadge",
  "sourceName": "contracts/GameBadge.sol",
  "abi": [
    {
      "inputs": [],
      "stateMutability": "nonpayable",
      "type": "constructor"
    },
    {
      "inputs": [
        {
          "internalType": "address",
          "name": "sender",
          "type": "address"
        },
        {
          "internalType": "uint256",
          "name": "tokenId",
          "type": "uint256"
        },
        {
          "internalType": "address",
          "name": "owner",
          "type": "address"
        }
      ],
      "name": "ERC721IncorrectOwner",
      "type": "error"
    },
    {
      "inputs": [
        {
          "internalType": "address",
          "name": "operator",
          "type": "address"
        },
        {
          "internalType": "uint256",
          "name": "tokenId",
          "type": "uint256"
        }
      ],
      "name": "ERC721InsufficientApproval",
      "type": "error"
    },
    {
      "inputs": [
        {
          "internalType": "address",
          "name": "approver",
          "type": "address"
        }
      ],
      "name": "ERC721InvalidApprover",
      "type": "error"
    },
    {
      "inputs": [
        {
          "internalType": "address",
          "name": "operator",
          "type": "address"
        }
      ],
      "name": "ERC721InvalidOperator",
      "type": "error"
    },
    {
      "inputs": [
        {
          "internalType": "address",
          "name": "owner",
          "type": "address"
        }
      ],
      "name": "ERC721InvalidOwner",
      "type": "error"
    },
    {
      "inputs": [
        {
          "internalType": "address",
          "name": "receiver",
          "type": "address"
        }
      ],
      "name": "ERC721InvalidReceiver",
      "type": "error"
    },
    {
      "inputs": [
        {
          "internalType": "address",
          "name": "sender",
          "type": "address"
        }
      ],
      "name": "ERC721InvalidSender",
      "type": "error"
    },
    {
      "inputs": [
        {
          "internalType": "uint256",
          "name": "tokenId",
          "type": "uint256"
        }
      ],
      "name": "ERC721NonexistentToken",
      "type": "error"
    },
    {
      "inputs": [
        {
          "internalType": "address",
          "name": "owner",
          "type": "address"
        }
      ],
      "name": "OwnableInvalidOwner",
      "type": "error"
    },
    {
      "inputs": [
        {
          "internalType": "address",
          "name": "account",
          "type": "address"
        }
      ],
      "name": "OwnableUnauthorizedAccount",
      "type": "error"
    },
    {
      "anonymous": false,
      "inputs": [
        {
          "indexed": true,
          "internalType": "address",
          "name": "owner",
          "type": "address"
        },
        {
          "indexed": true,
          "internalType": "address",
          "name": "approved",
          "type": "address"
        },
        {
          "indexed": true,
          "internalType": "uint256",
          "name": "tokenId",
          "type": "uint256"
        }
      ],
      "name": "Approval",
      "type": "event"
    },
    {
      "anonymous": false,
      "inputs": [
        {
          "indexed": true,
          "internalType": "address",
          "name": "owner",
          "type": "address"
        },
        {
          "indexed": true,
          "internalType": "address",
          "name": "operator",
          "type": "address"
        },
        {
          "indexed": false,
          "internalType": "bool",
          "name": "approved",
          "type": "bool"
        }
      ],
      "name": "ApprovalForAll",
      "type": "event"
    },
    {
      "anonymous": false,
      "inputs": [
        {
          "indexed": false,
          "internalType": "uint256",
          "name": "_fromTokenId",
          "type": "uint256"
        },
        {
          "indexed": false,
          "internalType": "uint256",
          "name": "_toTokenId",
          "type": "uint256"
        }
      ],
      "name": "BatchMetadataUpdate",
      "type": "event"
    },
    {
      "anonymous": false,
      "inputs": [
        {
          "indexed": false,
          "internalType": "uint256",
          "name": "_tokenId",
          "type": "uint256"
        }
      ],
      "name": "MetadataUpdate",
      "type": "event"
    },
    {
      "anonymous": false,
      "inputs": [
        {
          "indexed": true,
          "internalType": "address",
          "name": "previousOwner",
          "type": "address"
        },
        {
          "indexed": true,
          "internalType": "address",
          "name": "newOwner",
          "type": "address"
        }
      ],
      "name": "OwnershipTransferred",
      "type": "event"
    },
    {
      "anonymous": false,
      "inputs": [
        {
          "indexed": true,
          "internalType": "address",
          "name": "from",
          "type": "address"
        },
        {
          "indexed": true,
          "internalType": "address",
          "name": "to",
          "type": "address"
        },
        {
          "indexed": true,
          "internalType": "uint256",
          "name": "tokenId",
          "type": "uint256"
        }
      ],
      "name": "Transfer",
      "type": "event"
    },
    {
      "inputs": [
        {
          "internalType": "address",
          "name": "to",
          "type": "address"
        },
        {
          "internalType": "uint256",
          "name": "tokenId",
          "type": "uint256"
        }
      ],
      "name": "approve",
      "outputs": [],
      "stateMutability": "nonpayable",
      "type": "function"
    },
    {
      "inputs": [
        {
          "internalType": "address",
          "name": "player",
          "type": "address"
        },
        {
          "internalType": "string",
          "name": "tokenURI",
          "type": "string"
        }
      ],
      "name": "awardBadge",
      "outputs": [
        {
          "internalType": "uint256",
          "name": "",
          "type": "uint256"
        }
      ],
      "stateMutability": "nonpayable",
      "type": "function"
    },
    {
      "inputs": [
        {
          "internalType": "address",
          "name": "owner",
          "type": "address"
        }
      ],
      "name": "balanceOf",
      "outputs": [
        {
          "internalType": "uint256",
          "name": "",
          "type": "uint256"
        }
      ],
      "stateMutability": "view",
      "type": "function"
    },
    {
      "inputs": [
        {
          "internalType": "uint256",
          "name": "tokenId",
          "type": "uint256"
        }
      ],
      "name": "getApproved",
      "outputs": [
        {
          "internalType": "address",
          "name": "",
          "type": "address"
        }
      ],
      "stateMutability": "view",
      "type": "function"
    },
    {
      "inputs": [
        {
          "internalType": "address",
          "name": "owner",
          "type": "address"
        },
        {
          "internalType": "address",
          "name": "operator",
          "type": "address"
        }
      ],
      "name": "isApprovedForAll",
      "outputs": [
        {
          "internalType": "bool",
          "name": "",
          "type": "bool"
        }
      ],
      "stateMutability": "view",
      "type": "function"
    },
    {
      "inputs": [],
      "name": "name",
      "outputs": [
        {
          "internalType": "string",
          "name": "",
          "type": "string"
        }
      ],
      "stateMutability": "view",
      "type": "function"
    },
    {
      "inputs": [],
      "name": "owner",
      "outputs": [
        {
          "internalType": "address",
          "name": "",
          "type": "address"
        }
      ],
      "stateMutability": "view",
      "type": "function"
    },
    {
      "inputs": [
        {
          "internalType": "uint256",
          "name": "tokenId",
          "type": "uint256"
        }
      ],
      "name": "ownerOf",
      "outputs": [
        {
          "internalType": "address",
          "name": "",
          "type": "address"
        }
      ],
      "stateMutability": "view",
      "type": "function"
    },
    {
      "inputs": [],
      "name": "renounceOwnership",
      "outputs": [],
      "stateMutability": "nonpayable",
      "type": "function"
    },
    {
      "inputs": [
        {
          "internalType": "address",
          "name": "from",
          "type": "address"
        },
        {
          "internalType": "address",
          "name": "to",
          "type": "address"
        },
        {
          "internalType": "uint256",
          "name": "tokenId",
          "type": "uint256"
        }
      ],
      "name": "safeTransferFrom",
      "outputs": [],
      "stateMutability": "nonpayable",
      "type": "function"
    },
    {
      "inputs": [
        {
          "internalType": "address",
          "name": "from",
          "type": "address"
        },
        {
          "internalType": "address",
          "name": "to",
          "type": "address"
        },
        {
          "internalType": "uint256",
          "name": "tokenId",
          "type": "uint256"
        },
        {
          "internalType": "bytes",
          "name": "data",
          "type": "bytes"
        }
      ],
      "name": "safeTransferFrom",
      "outputs": [],
      "stateMutability": "nonpayable",
      "type": "function"
    },
    {
      "inputs": [
        {
          "internalType": "address",
          "name": "operator",
          "type": "address"
        },
        {
          "internalType": "bool",
          "name": "approved",
          "type": "bool"
        }
      ],
      "name": "setApprovalForAll",
      "outputs": [],
      "stateMutability": "nonpayable",
      "type": "function"
    },
    {
      "inputs": [
        {
          "internalType": "bytes4",
          "name": "interfaceId",
          "type": "bytes4"
        }
      ],
      "name": "supportsInterface",
      "outputs": [
        {
          "internalType": "bool",
          "name": "",
          "type": "bool"
        }
      ],
      "stateMutability": "view",
      "type": "function"
    },
    {
      "inputs": [],
      "name": "symbol",
      "outputs": [
        {
          "internalType": "string",
          "name": "",
          "type": "string"
        }
      ],
      "stateMutability": "view",
      "type": "function"
    },
    {
      "inputs": [
        {
          "internalType": "uint256",
          "name": "tokenId",
          "type": "uint256"
        }
      ],
      "name": "tokenURI",
      "outputs": [
        {
          "internalType": "string",
          "name": "",
          "type": "string"
        }
      ],
      "stateMutability": "view",
      "type": "function"
    },
    {
      "inputs": [
        {
          "internalType": "address",
          "name": "from",
          "type": "address"
        },
        {
          "internalType": "address",
          "name": "to",
          "type": "address"
        },
        {
          "internalType": "uint256",
          "name": "tokenId",
          "type": "uint256"
        }
      ],
      "name": "transferFrom",
      "outputs": [],
      "stateMutability": "nonpayable",
      "type": "function"
    },
    {
      "inputs": [
        {
          "internalType": "address",
          "name": "newOwner",
          "type": "address"
        }
      ],
      "name": "transferOwnership",
      "outputs": [],
      "stateMutability": "nonpayable",
      "type": "function"
    }
  ],
  "bytecode": "0x60806040523480156200001157600080fd5b50336040518060400160405280600981526020017f47616d65426164676500000000000000000000000000000000000000000000008152506040518060400160405280600381526020017f4742440000000000000000000000000000000000000000000000000000000000815250816000908162000090919062000472565b508060019081620000a2919062000472565b505050600073ffffffffffffffffffffffffffffffffffffffff168173ffffffffffffffffffffffffffffffffffffffff16036200011a5760006040517f1e4fbdf70000000000000000000000000000000000000000000000000000000081526004016200011191906200059e565b60405180910390fd5b6200012b816200013260201b60201c565b50620005bb565b6000600760009054906101000a900473ffffffffffffffffffffffffffffffffffffffff16905081600760006101000a81548173ffffffffffffffffffffffffffffffffffffffff021916908373ffffffffffffffffffffffffffffffffffffffff1602179055508173ffffffffffffffffffffffffffffffffffffffff168173ffffffffffffffffffffffffffffffffffffffff167f8be0079c531659141344cd1fd0a4f28419497f9722a3daafe3b4186f6b6457e060405160405180910390a35050565b600081519050919050565b7f4e487b7100000000000000000000000000000000000000000000000000000000600052604160045260246000fd5b7f4e487b7100000000000000000000000000000000000000000000000000000000600052602260045260246000fd5b600060028204905060018216806200027a57607f821691505b60208210810362000290576200028f62000232565b5b50919050565b60008190508160005260206000209050919050565b60006020601f8301049050919050565b600082821b905092915050565b600060088302620002fa7fffffffffffffffffffffffffffffffffffffffffffffffffffffffffffffffff82620002bb565b620003068683620002bb565b95508019841693508086168417925050509392505050565b6000819050919050565b6000819050919050565b6000620003536200034d62000347846200031e565b62000328565b6200031e565b9050919050565b6000819050919050565b6200036f8362000332565b620003876200037e826200035a565b848454620002c8565b825550505050565b600090565b6200039e6200038f565b620003ab81848462000364565b505050565b5b81811015620003d357620003c760008262000394565b600181019050620003b1565b5050565b601f8211156200042257620003ec8162000296565b620003f784620002ab565b8101602085101562000407578190505b6200041f6200041685620002ab565b830182620003b0565b50505b505050565b600082821c905092915050565b6000620004476000198460080262000427565b1980831691505092915050565b600062000462838362000434565b9150826002028217905092915050565b6200047d82620001f8565b67ffffffffffffffff81111562000499576200049862000203565b5b620004a5825462000261565b620004b2828285620003d7565b600060209050601f831160018114620004ea5760008415620004d5578287015190505b620004e1858262000454565b86555062000551565b601f198416620004fa8662000296565b60005b828110156200052457848901518255600182019150602085019450602081019050620004fd565b8683101562000544578489015162000540601f89168262000434565b8355505b6001600288020188555050505b505050505050565b600073ffffffffffffffffffffffffffffffffffffffff82169050919050565b6000620005868262000559565b9050919050565b620005988162000579565b82525050565b6000602082019050620005b560008301846200058d565b92915050565b61263f80620005cb6000396000f3fe608060405234801561001057600080fd5b506004361061010b5760003560e01c8063715018a6116100a2578063a22cb46511610071578063a22cb465146102b8578063b88d4fde146102d4578063c87b56dd146102f0578063e985e9c514610320578063f2fde38b146103505761010b565b8063715018a614610242578063833c53291461024c5780638da5cb5b1461027c57806395d89b411461029a5761010b565b806323b872dd116100de57806323b872dd146101aa57806342842e0e146101c65780636352211e146101e257806370a08231146102125761010b565b806301ffc9a71461011057806306fdde0314610140578063081812fc1461015e578063095ea7b31461018e575b600080fd5b61012a60048036038101906101259190611a97565b61036c565b6040516101379190611adf565b60405180910390f35b6101486103cd565b6040516101559190611b8a565b60405180910390f35b61017860048036038101906101739190611be2565b61045f565b6040516101859190611c50565b60405180910390f35b6101a860048036038101906101a39190611c97565b61047b565b005b6101c460048036038101906101bf9190611cd7565b610491565b005b6101e060048036038101906101db9190611cd7565b610593565b005b6101fc60048036038101906101f79190611be2565b6105b3565b6040516102099190611c50565b60405180910390f35b61022c60048036038101906102279190611d2a565b6105c5565b6040516102399190611d66565b60405180910390f35b61024a61067f565b005b61026660048036038101906102619190611eb6565b610693565b6040516102739190611d66565b60405180910390f35b6102846106da565b6040516102919190611c50565b60405180910390f35b6102a2610704565b6040516102af9190611b8a565b60405180910390f35b6102d260048036038101906102cd9190611f3e565b610796565b005b6102ee60048036038101906102e9919061201f565b6107ac565b005b61030a60048036038101906103059190611be2565b6107c9565b6040516103179190611b8a565b60405180910390f35b61033a600480360381019061033591906120a2565b6108dc565b6040516103479190611adf565b60405180910390f35b61036a60048036038101906103659190611d2a565b610970565b005b6000634906490660e01b7bffffffffffffffffffffffffffffffffffffffffffffffffffffffff1916827bffffffffffffffffffffffffffffffffffffffffffffffffffffffff191614806103c657506103c5826109f6565b5b9050919050565b6060600080546103dc90612111565b80601f016020809104026020016040519081016040528092919081815260200182805461040890612111565b80156104555780601f1061042a57610100808354040283529160200191610455565b820191906000526020600020905b81548152906001019060200180831161043857829003601f168201915b5050505050905090565b600061046a82610ad8565b5061047482610b60565b9050919050565b61048d8282610488610b9d565b610ba5565b5050565b600073ffffffffffffffffffffffffffffffffffffffff168273ffffffffffffffffffffffffffffffffffffffff16036105035760006040517f64a0ae920000000000000000000000000000000000000000000000000000000081526004016104fa9190611c50565b60405180910390fd5b60006105178383610512610b9d565b610bb7565b90508373ffffffffffffffffffffffffffffffffffffffff168173ffffffffffffffffffffffffffffffffffffffff161461058d578382826040517f64283d7b00000000000000000000000000000000000000000000000000000000815260040161058493929190612142565b60405180910390fd5b50505050565b6105ae838383604051806020016040528060008152506107ac565b505050565b60006105be82610ad8565b9050919050565b60008073ffffffffffffffffffffffffffffffffffffffff168273ffffffffffffffffffffffffffffffffffffffff16036106385760006040517f89c62b6400000000000000000000000000000000000000000000000000000000815260040161062f9190611c50565b60405180910390fd5b600360008373ffffffffffffffffffffffffffffffffffffffff1673ffffffffffffffffffffffffffffffffffffffff168152602001908152602001600020549050919050565b610687610dd1565b6106916000610e58565b565b600061069d610dd1565b600860008154809291906106b0906121a8565b9190505550600060085490506106c68482610f1e565b6106d08184611017565b8091505092915050565b6000600760009054906101000a900473ffffffffffffffffffffffffffffffffffffffff16905090565b60606001805461071390612111565b80601f016020809104026020016040519081016040528092919081815260200182805461073f90612111565b801561078c5780601f106107615761010080835404028352916020019161078c565b820191906000526020600020905b81548152906001019060200180831161076f57829003601f168201915b5050505050905090565b6107a86107a1610b9d565b8383611073565b5050565b6107b7848484610491565b6107c3848484846111e2565b50505050565b60606107d482610ad8565b5060006006600084815260200190815260200160002080546107f590612111565b80601f016020809104026020016040519081016040528092919081815260200182805461082190612111565b801561086e5780601f106108435761010080835404028352916020019161086e565b820191906000526020600020905b81548152906001019060200180831161085157829003601f168201915b50505050509050600061087f611399565b905060008151036108945781925050506108d7565b6000825111156108c95780826040516020016108b192919061222c565b604051602081830303815290604052925050506108d7565b6108d2846113b0565b925050505b919050565b6000600560008473ffffffffffffffffffffffffffffffffffffffff1673ffffffffffffffffffffffffffffffffffffffff16815260200190815260200160002060008373ffffffffffffffffffffffffffffffffffffffff1673ffffffffffffffffffffffffffffffffffffffff16815260200190815260200160002060009054906101000a900460ff16905092915050565b610978610dd1565b600073ffffffffffffffffffffffffffffffffffffffff168173ffffffffffffffffffffffffffffffffffffffff16036109ea5760006040517f1e4fbdf70000000000000000000000000000000000000000000000000000000081526004016109e19190611c50565b60405180910390fd5b6109f381610e58565b50565b60007f80ac58cd000000000000000000000000000000000000000000000000000000007bffffffffffffffffffffffffffffffffffffffffffffffffffffffff1916827bffffffffffffffffffffffffffffffffffffffffffffffffffffffff19161480610ac157507f5b5e139f000000000000000000000000000000000000000000000000000000007bffffffffffffffffffffffffffffffffffffffffffffffffffffffff1916827bffffffffffffffffffffffffffffffffffffffffffffffffffffffff1916145b80610ad15750610ad082611419565b5b9050919050565b600080610ae483611483565b9050600073ffffffffffffffffffffffffffffffffffffffff168173ffffffffffffffffffffffffffffffffffffffff1603610b5757826040517f7e273289000000000000000000000000000000000000000000000000000000008152600401610b4e9190611d66565b60405180910390fd5b80915050919050565b60006004600083815260200190815260200160002060009054906101000a900473ffffffffffffffffffffffffffffffffffffffff169050919050565b600033905090565b610bb283838360016114c0565b505050565b600080610bc384611483565b9050600073ffffffffffffffffffffffffffffffffffffffff168373ffffffffffffffffffffffffffffffffffffffff1614610c0557610c04818486611685565b5b600073ffffffffffffffffffffffffffffffffffffffff168173ffffffffffffffffffffffffffffffffffffffff1614610c9657610c476000856000806114c0565b6001600360008373ffffffffffffffffffffffffffffffffffffffff1673ffffffffffffffffffffffffffffffffffffffff168152602001908152602001600020600082825403925050819055505b600073ffffffffffffffffffffffffffffffffffffffff168573ffffffffffffffffffffffffffffffffffffffff1614610d19576001600360008773ffffffffffffffffffffffffffffffffffffffff1673ffffffffffffffffffffffffffffffffffffffff168152602001908152602001600020600082825401925050819055505b846002600086815260200190815260200160002060006101000a81548173ffffffffffffffffffffffffffffffffffffffff021916908373ffffffffffffffffffffffffffffffffffffffff160217905550838573ffffffffffffffffffffffffffffffffffffffff168273ffffffffffffffffffffffffffffffffffffffff167fddf252ad1be2c89b69c2b068fc378daa952ba7f163c4a11628f55a4df523b3ef60405160405180910390a4809150509392505050565b610dd9610b9d565b73ffffffffffffffffffffffffffffffffffffffff16610df76106da565b73ffffffffffffffffffffffffffffffffffffffff1614610e5657610e1a610b9d565b6040517f118cdaa7000000000000000000000000000000000000000000000000000000008152600401610e4d9190611c50565b60405180910390fd5b565b6000600760009054906101000a900473ffffffffffffffffffffffffffffffffffffffff16905081600760006101000a81548173ffffffffffffffffffffffffffffffffffffffff021916908373ffffffffffffffffffffffffffffffffffffffff1602179055508173ffffffffffffffffffffffffffffffffffffffff168173ffffffffffffffffffffffffffffffffffffffff167f8be0079c531659141344cd1fd0a4f28419497f9722a3daafe3b4186f6b6457e060405160405180910390a35050565b600073ffffffffffffffffffffffffffffffffffffffff168273ffffffffffffffffffffffffffffffffffffffff1603610f905760006040517f64a0ae92000000000000000000000000000000000000000000000000000000008152600401610f879190611c50565b60405180910390fd5b6000610f9e83836000610bb7565b9050600073ffffffffffffffffffffffffffffffffffffffff168173ffffffffffffffffffffffffffffffffffffffff16146110125760006040517f73c6ac6e0000000000000000000000000000000000000000000000000000000081526004016110099190611c50565b60405180910390fd5b505050565b8060066000848152602001908152602001600020908161103791906123fc565b507ff8e1a15aba9398e019f0b49df1a4fde98ee17ae345cb5f6b5e2c27f5033e8ce7826040516110679190611d66565b60405180910390a15050565b600073ffffffffffffffffffffffffffffffffffffffff168273ffffffffffffffffffffffffffffffffffffffff16036110e457816040517f5b08ba180000000000000000000000000000000000000000000000000000000081526004016110db9190611c50565b60405180910390fd5b80600560008573ffffffffffffffffffffffffffffffffffffffff1673ffffffffffffffffffffffffffffffffffffffff16815260200190815260200160002060008473ffffffffffffffffffffffffffffffffffffffff1673ffffffffffffffffffffffffffffffffffffffff16815260200190815260200160002060006101000a81548160ff0219169083151502179055508173ffffffffffffffffffffffffffffffffffffffff168373ffffffffffffffffffffffffffffffffffffffff167f17307eab39ab6107e8899845ad3d59bd9653f200f220920489ca2b5937696c31836040516111d59190611adf565b60405180910390a3505050565b60008373ffffffffffffffffffffffffffffffffffffffff163b1115611393578273ffffffffffffffffffffffffffffffffffffffff1663150b7a02611226610b9d565b8685856040518563ffffffff1660e01b81526004016112489493929190612523565b6020604051808303816000875af192505050801561128457506040513d601f19601f820116820180604052508101906112819190612584565b60015b611308573d80600081146112b4576040519150601f19603f3d011682016040523d82523d6000602084013e6112b9565b606091505b50600081510361130057836040517f64a0ae920000000000000000000000000000000000000000000000000000000081526004016112f79190611c50565b60405180910390fd5b805181602001fd5b63150b7a0260e01b7bffffffffffffffffffffffffffffffffffffffffffffffffffffffff1916817bffffffffffffffffffffffffffffffffffffffffffffffffffffffff19161461139157836040517f64a0ae920000000000000000000000000000000000000000000000000000000081526004016113889190611c50565b60405180910390fd5b505b50505050565b606060405180602001604052806000815250905090565b60606113bb82610ad8565b5060006113c6611399565b905060008151116113e65760405180602001604052806000815250611411565b806113f084611749565b60405160200161140192919061222c565b6040516020818303038152906040525b915050919050565b60007f01ffc9a7000000000000000000000000000000000000000000000000000000007bffffffffffffffffffffffffffffffffffffffffffffffffffffffff1916827bffffffffffffffffffffffffffffffffffffffffffffffffffffffff1916149050919050565b60006002600083815260200190815260200160002060009054906101000a900473ffffffffffffffffffffffffffffffffffffffff169050919050565b80806114f95750600073ffffffffffffffffffffffffffffffffffffffff168273ffffffffffffffffffffffffffffffffffffffff1614155b1561162d57600061150984610ad8565b9050600073ffffffffffffffffffffffffffffffffffffffff168373ffffffffffffffffffffffffffffffffffffffff161415801561157457508273ffffffffffffffffffffffffffffffffffffffff168173ffffffffffffffffffffffffffffffffffffffff1614155b8015611587575061158581846108dc565b155b156115c957826040517fa9fbf51f0000000000000000000000000000000000000000000000000000000081526004016115c09190611c50565b60405180910390fd5b811561162b57838573ffffffffffffffffffffffffffffffffffffffff168273ffffffffffffffffffffffffffffffffffffffff167f8c5be1e5ebec7d5bd14f71427d1e84f3dd0314c0f7b2291e5b200ac8c7c3b92560405160405180910390a45b505b836004600085815260200190815260200160002060006101000a81548173ffffffffffffffffffffffffffffffffffffffff021916908373ffffffffffffffffffffffffffffffffffffffff16021790555050505050565b611690838383611817565b61174457600073ffffffffffffffffffffffffffffffffffffffff168373ffffffffffffffffffffffffffffffffffffffff160361170557806040517f7e2732890000000000000000000000000000000000000000000000000000000081526004016116fc9190611d66565b60405180910390fd5b81816040517f177e802f00000000000000000000000000000000000000000000000000000000815260040161173b9291906125b1565b60405180910390fd5b505050565b606060006001611758846118d8565b01905060008167ffffffffffffffff81111561177757611776611d8b565b5b6040519080825280601f01601f1916602001820160405280156117a95781602001600182028036833780820191505090505b509050600082602001820190505b60011561180c578080600190039150507f3031323334353637383961626364656600000000000000000000000000000000600a86061a8153600a8581611800576117ff6125da565b5b049450600085036117b7575b819350505050919050565b60008073ffffffffffffffffffffffffffffffffffffffff168373ffffffffffffffffffffffffffffffffffffffff16141580156118cf57508273ffffffffffffffffffffffffffffffffffffffff168473ffffffffffffffffffffffffffffffffffffffff161480611890575061188f84846108dc565b5b806118ce57508273ffffffffffffffffffffffffffffffffffffffff166118b683610b60565b73ffffffffffffffffffffffffffffffffffffffff16145b5b90509392505050565b600080600090507a184f03e93ff9f4daa797ed6e38ed64bf6a1f0100000000000000008310611936577a184f03e93ff9f4daa797ed6e38ed64bf6a1f010000000000000000838161192c5761192b6125da565b5b0492506040810190505b6d04ee2d6d415b85acef81000000008310611973576d04ee2d6d415b85acef81000000008381611969576119686125da565b5b0492506020810190505b662386f26fc1000083106119a257662386f26fc100008381611998576119976125da565b5b0492506010810190505b6305f5e10083106119cb576305f5e10083816119c1576119c06125da565b5b0492506008810190505b61271083106119f05761271083816119e6576119e56125da565b5b0492506004810190505b60648310611a135760648381611a0957611a086125da565b5b0492506002810190505b600a8310611a22576001810190505b80915050919050565b6000604051905090565b600080fd5b600080fd5b60007fffffffff0000000000000000000000000000000000000000000000000000000082169050919050565b611a7481611a3f565b8114611a7f57600080fd5b50565b600081359050611a9181611a6b565b92915050565b600060208284031215611aad57611aac611a35565b5b6000611abb84828501611a82565b91505092915050565b60008115159050919050565b611ad981611ac4565b82525050565b6000602082019050611af46000830184611ad0565b92915050565b600081519050919050565b600082825260208201905092915050565b60005b83811015611b34578082015181840152602081019050611b19565b60008484015250505050565b6000601f19601f8301169050919050565b6000611b5c82611afa565b611b668185611b05565b9350611b76818560208601611b16565b611b7f81611b40565b840191505092915050565b60006020820190508181036000830152611ba48184611b51565b905092915050565b6000819050919050565b611bbf81611bac565b8114611bca57600080fd5b50565b600081359050611bdc81611bb6565b92915050565b600060208284031215611bf857611bf7611a35565b5b6000611c0684828501611bcd565b91505092915050565b600073ffffffffffffffffffffffffffffffffffffffff82169050919050565b6000611c3a82611c0f565b9050919050565b611c4a81611c2f565b82525050565b6000602082019050611c656000830184611c41565b92915050565b611c7481611c2f565b8114611c7f57600080fd5b50565b600081359050611c9181611c6b565b92915050565b60008060408385031215611cae57611cad611a35565b5b6000611cbc85828601611c82565b9250506020611ccd85828601611bcd565b9150509250929050565b600080600060608486031215611cf057611cef611a35565b5b6000611cfe86828701611c82565b9350506020611d0f86828701611c82565b9250506040611d2086828701611bcd565b9150509250925092565b600060208284031215611d4057611d3f611a35565b5b6000611d4e84828501611c82565b91505092915050565b611d6081611bac565b82525050565b6000602082019050611d7b6000830184611d57565b92915050565b600080fd5b600080fd5b7f4e487b7100000000000000000000000000000000000000000000000000000000600052604160045260246000fd5b611dc382611b40565b810181811067ffffffffffffffff82111715611de257611de1611d8b565b5b80604052505050565b6000611df5611a2b565b9050611e018282611dba565b919050565b600067ffffffffffffffff821115611e2157611e20611d8b565b5b611e2a82611b40565b9050602081019050919050565b82818337600083830152505050565b6000611e59611e5484611e06565b611deb565b905082815260208101848484011115611e7557611e74611d86565b5b611e80848285611e37565b509392505050565b600082601f830112611e9d57611e9c611d81565b5b8135611ead848260208601611e46565b91505092915050565b60008060408385031215611ecd57611ecc611a35565b5b6000611edb85828601611c82565b925050602083013567ffffffffffffffff811115611efc57611efb611a3a565b5b611f0885828601611e88565b9150509250929050565b611f1b81611ac4565b8114611f2657600080fd5b50565b600081359050611f3881611f12565b92915050565b60008060408385031215611f5557611f54611a35565b5b6000611f6385828601611c82565b9250506020611f7485828601611f29565b9150509250929050565b600067ffffffffffffffff821115611f9957611f98611d8b565b5b611fa282611b40565b9050602081019050919050565b6000611fc2611fbd84611f7e565b611deb565b905082815260208101848484011115611fde57611fdd611d86565b5b611fe9848285611e37565b509392505050565b600082601f83011261200657612005611d81565b5b8135612016848260208601611faf565b91505092915050565b6000806000806080858703121561203957612038611a35565b5b600061204787828801611c82565b945050602061205887828801611c82565b935050604061206987828801611bcd565b925050606085013567ffffffffffffffff81111561208a57612089611a3a565b5b61209687828801611ff1565b91505092959194509250565b600080604083850312156120b9576120b8611a35565b5b60006120c785828601611c82565b92505060206120d885828601611c82565b9150509250929050565b7f4e487b7100000000000000000000000000000000000000000000000000000000600052602260045260246000fd5b6000600282049050600182168061212957607f821691505b60208210810361213c5761213b6120e2565b5b50919050565b60006060820190506121576000830186611c41565b6121646020830185611d57565b6121716040830184611c41565b949350505050565b7f4e487b7100000000000000000000000000000000000000000000000000000000600052601160045260246000fd5b60006121b382611bac565b91507fffffffffffffffffffffffffffffffffffffffffffffffffffffffffffffffff82036121e5576121e4612179565b5b600182019050919050565b600081905092915050565b600061220682611afa565b61221081856121f0565b9350612220818560208601611b16565b80840191505092915050565b600061223882856121fb565b915061224482846121fb565b91508190509392505050565b60008190508160005260206000209050919050565b60006020601f8301049050919050565b600082821b905092915050565b6000600883026122b27fffffffffffffffffffffffffffffffffffffffffffffffffffffffffffffffff82612275565b6122bc8683612275565b95508019841693508086168417925050509392505050565b6000819050919050565b60006122f96122f46122ef84611bac565b6122d4565b611bac565b9050919050565b6000819050919050565b612313836122de565b61232761231f82612300565b848454612282565b825550505050565b600090565b61233c61232f565b61234781848461230a565b505050565b5b8181101561236b57612360600082612334565b60018101905061234d565b5050565b601f8211156123b05761238181612250565b61238a84612265565b81016020851015612399578190505b6123ad6123a585612265565b83018261234c565b50505b505050565b600082821c905092915050565b60006123d3600019846008026123b5565b1980831691505092915050565b60006123ec83836123c2565b9150826002028217905092915050565b61240582611afa565b67ffffffffffffffff81111561241e5761241d611d8b565b5b6124288254612111565b61243382828561236f565b600060209050601f8311600181146124665760008415612454578287015190505b61245e85826123e0565b8655506124c6565b601f19841661247486612250565b60005b8281101561249c57848901518255600182019150602085019450602081019050612477565b868310156124b957848901516124b5601f8916826123c2565b8355505b6001600288020188555050505b505050505050565b600081519050919050565b600082825260208201905092915050565b60006124f5826124ce565b6124ff81856124d9565b935061250f818560208601611b16565b61251881611b40565b840191505092915050565b60006080820190506125386000830187611c41565b6125456020830186611c41565b6125526040830185611d57565b818103606083015261256481846124ea565b905095945050505050565b60008151905061257e81611a6b565b92915050565b60006020828403121561259a57612599611a35565b5b60006125a88482850161256f565b91505092915050565b60006040820190506125c66000830185611c41565b6125d36020830184611d57565b9392505050565b7f4e487b7100000000000000000000000000000000000000000000000000000000600052601260045260246000fdfea264697066735822122017156fd11cac10b0554211aab7cfbfc0f9a7cb09a56fcf38c79e3197fa0329f264736f6c63430008180033",
  "linkReferences": {},
  "deployedLinkReferences": {}
}